:1000000010C02AC029C028C027C026C0C4C024C030
:1000100023C022C021C020C01FC01EC01DC01CC0E4
:100020001BC011271FBFCFEBD0E0DEBFCDBF20E04C
:10003000A0E4B0E0EEEAF2E402C031913D93A634D0
:10004000B207D9F720E0A6E4B0E001C01D93A035C7
:10005000B207E1F788D029C1D3CF4FB7F8949FBB3F
:100060008EBB11BD10BD4FBF08958F7399279DA9F9
:100070008CA90895E82FF92F60E070E080E090E00F
:100080006E177F071CF542B3406442BB9699FECFC2
:100090004EB15FB141705527062F02C0440F551F66
:1000A0000A95E2F7842B952B4E2F5F2F4150510B71
:1000B0006417750744F440E050E04E3151071CF4DA
:1000C0004F5F5F4FFACF6F5F7F4FDACF089586E0C3
:1000D00090E0D0DF9AA989A946A1442351F042A11A
:1000E00053A1452B31F042A153A14150510B53A9CB
:1000F00042A969A17AA142A153A164177507C8F06A
:1001000085E090E0B7DF98A987A960A171A14FE3CE
:1001100050E0461B570B67A178A14623572360A1E7
:1001200071A1460F571F58A947A987A198A19DDF24
:1001300003C080E090E099DF56A141E0452746A941
:1001400046A1442379F040A151A14F5F5F4F51A9CF
:1001500040A940A151A14333510720F042E350E0B0
:1001600051A940A9089548ED4CBF41E046BF11B9DF
:1001700012B913B914BD49E043BD40E146BD43E89F
:1001800042BB44E040BB84A195A167DF80E090E0E2
:100190006CDF7894FFCF1F930F930FB70F9310E08E
:1001A0004F935F936F937F938F939F93AF93BF937F
:1001B000CF93EF93FF93CFB7F8948EA19FA18F5F5A
:1001C0009F4F66E070E048D09FA98EA94EA15FA125
:1001D0004530510741F44BA14F5F4BA94BA144312E
:1001E00011F41BA974DF4EA15FA1452B29F444E64D
:1001F00050E055A944A906C044A155A1440F551F7C
:1002000055A944A96EA17FA141E050E002C0440F6E
:10021000551F6A95E2F76CA17DA146235723452B14
:1002200021F041B1446041B903C041B14B7F41B9B4
:1002300084A195A112DFCFBFFF91EF91CF91BF9124
:10024000AF919F918F917F916F915F914F910F919E
:100250000FBF0F911F91189597FB072F16F400956C
:1002600006D077FD08D00BD007FD05D03EF4909561
:1002700081959F4F0895709561957F4F0895AA1BB2
:10028000BB1B51E107C0AA1FBB1FA617B70710F081
:10029000A61BB70B881F991F5A95A9F780959095B3
:0E02A000682F792F8A2F9B2F0895F894FFCF97
:0602AE0002007F00640065
:00000001FF
