:1000000010C02AC029C028C027C026C0C3C024C031
:1000100023C022C021C020C01FC01EC01DC01CC0E4
:100020001BC011271FBFCFEBD0E0DEBFCDBF20E04C
:10003000A0E4B0E0ECEAF2E402C031913D93A634D2
:10004000B207D9F720E0A6E4B0E001C01D93A035C7
:10005000B207E1F787D028C1D3CF4FB7F8949FBB41
:100060008EBB11BD10BD4FBF08958F7399279DA9F9
:100070008CA90895E82FF92F60E070E080E090E00F
:100080006E177F071CF542B3406442BB9699FECFC2
:100090004EB15FB141705527062F02C0440F551F66
:1000A0000A95E2F7842B952B4E2F5F2F4150510B71
:1000B0006417750744F440E050E04E3151071CF4DA
:1000C0004F5F5F4FFACF6F5F7F4FDACF089587E0C2
:1000D00090E0D0DF9AA989A946A1442351F042A11A
:1000E00053A1452B31F042A153A14150510B53A9CB
:1000F00042A969A17AA142A153A164177507C0F072
:1001000085E090E0B7DF98A987A987A198A140A1D1
:1001100051A16FE370E0641B750B9DD040A151A10C
:10012000840F951F98A987A987A198A19EDF03C076
:1001300080E090E09ADF56A141E0452746A946A11C
:10014000442379F040A151A14F5F5F4F51A940A9CD
:1001500040A151A14333510720F042E350E051A99F
:1001600040A9089548ED4CBF41E046BF11B912B90E
:1001700013B914BD49E043BD40E146BD43E842BB6D
:1001800046E040BB84A195A168DF80E090E06DDF90
:100190007894FFCF1F930F930FB70F9310E04F93F7
:1001A0005F936F937F938F939F93AF93BF93CF93FF
:1001B000EF93FF93CFB7F8948EA19FA18F5F9F4FCE
:1001C00066E070E05ED09FA98EA94EA15FA1453088
:1001D000510741F44BA14F5F4BA94BA1443111F49E
:1001E0001BA975DF4EA15FA1452B29F444E650E021
:1001F00055A944A906C044A155A1440F551F55A9AE
:1002000044A96EA17FA141E050E002C0440F551FF8
:100210006A95E2F76CA17DA146235723452B21F077
:1002200041B1446041B903C041B14B7F41B984A1A0
:1002300095A113DFCFBFFF91EF91CF91BF91AF9108
:100240009F918F917F916F915F914F910F910FBF10
:100250000F911F911895AA1BBB1B51E107C0AA1F44
:10026000BB1FA617B70710F0A61BB70B881F991F57
:100270005A95A9F780959095682F792F8A2F9B2FF3
:10028000089597FB072F16F4009506D077FD08D048
:10029000E2DF07FD05D03EF4909581959F4F0895CC
:0C02A000709561957F4F0895F894FFCF92
:0602AC0002007F00640067
:00000001FF
